:020000040800F2
:100000007004002049010008510100085301000854
:1000100055010008570100085901000800000000C0
:100020000000000000000000000000005B0100086C
:100030005D010008000000005F0100086101000888
:100040006301000863010008630100086301000800
:1000500063010008630100086301000863010008F0
:10006000630100086301000863010008350200080D
:1000700063010008630100086502000863010008CD
:1000800063010008630100086301000863010008C0
:1000900063010008630100086301000863010008B0
:1000A00063010008F5080008630100086301000807
:1000B0006301000863010008630100086301000890
:1000C0006301000863010008630100086301000880
:1000D000630100083D09000863010008630100088E
:1000E00011060008630100086301000863010008AD
:1000F0006301000863010008630100086301000850
:10010000630100086301000863010008630100083F
:100110006301000863010008630100081909000871
:10012000630100086301000863010008630100081F
:10013000DFF810D000F04CF800480047AD0C000884
:10014000AFF300807004002006488047064800474F
:10015000FEE7FEE7FEE7FEE7FEE7FEE7FEE7FEE777
:10016000FEE7FEE795080008310100082DE9F05F81
:100170000546002092469B46884606468146402416
:100180001BE0284641464746224600F042F85346C7
:100190005A46C01A914110D311461846224600F023
:1001A00029F82D1A67EB01084F462246012000214D
:1001B00000F020F817EB00094E41201EA4F10104C5
:1001C000DFDC484631462A464346BDE8F09F000042
:1001D000064C074D06E0E06840F0010394E8070094
:1001E00098471034AC42F6D3FFF7A6FF440D000841
:1001F000640D0008202A04DB203A00FA02F10020F6
:1002000070479140C2F1200320FA03F31943904054
:100210007047202A04DB203A21FA02F000217047BF
:1002200021FA02F3D040C2F120029140084319465E
:10023000704700000948006800F0020068B10748F4
:10024000406840F00100054948600846806820F099
:1002500001008860012002490870704700000240D8
:100260000100002010B50748006800F4005040B1BC
:100270000448406840F480500249486002A000F001
:100280008DFB10BD000002403100000000B50346A8
:1002900003E04FF47A7000F006F8181EA3F1010194
:1002A0008BB2F6D100BD00EBC001C9004FF0E022D7
:1002B0005161002191610521116100BF4FF0E021E2
:1002C000096901F480310029F8D04FF0E021096973
:1002D00021F001014FF0E02211617047324880693E
:1002E00041F214010843304988613048406820F4E5
:1002F00040002E4948600846406840F4401048607D
:100300002B4800682B4908432949086008460068C3
:1003100029490840264908600846006820F03060F6
:1003200008600846006840F0806008602348008844
:1003300040F00400214908800846008840F400701D
:1003400008800846808820F00400888008460088DD
:1003500040F4807008800846008820F02000088063
:100360000846008820F0100008800846008840F009
:10037000080008800846008820F0800008800846B1
:10038000008820F4006008800846008820F0020001
:1003900008800846008820F0010008800846008890
:1003A00040F04000088070470010024000100140FB
:1003B000000801400000B0B0FFFFBFBF00300140A7
:1003C0000348C06820F400500149C860704700002D
:1003D000001001400348C06840F400500149C86063
:1003E0007047000000100140014600BF0948008925
:1003F00000F002000028F9D10648818100BF0548BD
:10040000008900F001000028F9D102488089C0B2BB
:1004100070470000003001400348008820F00100D0
:100420000149088070470000002C014010B5484881
:10043000806940F48040464988610846806940F000
:10044000040088614348006840F03000414908607A
:100450000846006840F0800008600846006820F008
:10046000400008600846006820F4407008600846B4
:10047000006840F4806008600846006820F400606E
:1004800008603548008840F0080033490880084675
:10049000008840F0040008802F480C38008820F0C5
:1004A00001002D490C3908802B48001F008840F2BC
:1004B000712108432849091F0880081D008820F47D
:1004C0008050091D0880081D008820F44050091D37
:1004D0000880081F008840F01000091F08800846A7
:1004E000008840F020000880032002461B4B19685A
:1004F0004FF6FF0319401A4B0B4343EA0221174BF7
:10050000196000BF25200321002808DA0A07140E0D
:10051000124A0C3200F00F031B1FD45403E00A07E9
:10052000130E104A135400BF252000F01F020121B2
:1005300091404209920002F1E022C2F8001100BF8E
:100540000548008840F400500349088010BD0000B1
:1005500000100240040801400C3801400CED00E09E
:100560000000FA0500E400E000BF0549098801F039
:1005700080010029F9D00249091D08807047000058
:100580000038014010B503460C46002204E0985C98
:10059000FFF7EAFF501CC2B2A242F8DB10BD000018
:1005A00000BF0549098801F080010029F9D00249FE
:1005B000091D0880704700000038014002490968A1
:1005C0000143014A116070470C0801400249096863
:1005D0008143014A116070470C08014010B5044680
:1005E00008480068204030B907A000F0D7F920463D
:1005F000FFF7E4FF05E005A000F0D0F92046FFF783
:10060000E5FF10BD0C08014033000000340000007D
:1006100010B50948006840F480600749086005206B
:10062000FFF734FE0548006800F4806010B902202E
:10063000FFF7D4FF10BD0000140401400C1C014062
:1006400070B505460E4600F068F800F077F8FFF741
:10065000B7FE280400EB06342020FFF7C5FEC4F3E4
:100660000740FFF7C1FEC4F30720FFF7BDFEE0B26D
:10067000FFF7BAFEFFF7AEFE70BD10B5FFF72EFE16
:1006800010BD2DE9F04706460F4690469946DDF825
:1006900020A000F042F800F051F8FFF791FE30047E
:1006A00000EB073000EB08240320FFF79DFEC4F3A6
:1006B0000740FFF799FEC4F30720FFF795FEE0B26D
:1006C000FFF792FE002506E00020FFF78DFE09F8F7
:1006D0000500681C85B25545F6DBFFF77BFEBDE8DB
:1006E000F08770B505460C46FFF76AFE9F20FFF7BE
:1006F0007BFE0020FFF778FE287000202080FFF7A7
:1007000073FE4FF6FF7101EA002020800020FFF702
:100710006BFE2080FFF75EFE70BD10B5FFF750FE48
:100720000520FFF761FE00BF0020FFF75DFE00F02F
:1007300001000028F8D1FFF74DFE10BD10B5FFF7FE
:100740003FFE0620FFF750FEFFF744FE10BD2DE9E7
:10075000F04706460F4690469946DDF820A0FFF781
:10076000DCFFFFF7EBFFFFF72BFE300400EB073059
:1007700000EB08240220FFF737FEC4F30740FFF721
:1007800033FEC4F30720FFF72FFEE0B2FFF72CFE85
:10079000002505E019F80500FFF726FE681C85B264
:1007A0005545F7DBFFF716FEBDE8F08710B500F002
:1007B00001F810BD0CB5002001900090334800688E
:1007C00040F480303149086000BF3048006800F4D0
:1007D000003000900198401C0190009818B90198D1
:1007E000B0F5A06FF1D12948006800F4003010B1D5
:1007F0000120009001E0002000900098012843D1E2
:100800002348006840F0100021490860084600684D
:1008100020F0070008600846006840F00200086009
:100820001A484068194948600846406848600846C8
:10083000406840F4806048600846406820F47C10BE
:1008400048600846406840F4E81048600846006880
:1008500040F08070086000BF0C48006800F0007035
:100860000028F9D00948406820F003000749486093
:100870000846406840F00200486000BF03484068F6
:1008800000F00C000828F9D10CBD00000010024057
:100890000020024010B51348006840F001001149E3
:1008A000086008464068104908400E4948600846FC
:1008B00000680E4908400B4908600846006820F4AB
:1008C000802008600846406820F4FE0048604FF42D
:1008D0001F008860FFF76AFF4FF00060044908605E
:1008E00010BD0000001002400000FFF8FFFFF6FE00
:1008F00008ED00E010B506A000F050F805480088AB
:1009000020F0010003490880FFF786FD10BD0000BC
:10091000610D0A00102C014010B50648008820F037
:100920000100044908800120FFF758FE02A000F0F2
:1009300035F810BD101400403100000000B5144817
:10094000008800F0100068B1114800881048001DB0
:100950000088104801781048FFF714FE00200D4968
:10096000087013E00A48008800F0200070B10848C1
:10097000001D00880648001D00880749054A1278B6
:10098000885404480078401C0249087000BD0000EB
:100990000038014000000020080000200FB4054B83
:1009A00010B503A9044A029800F018F810BC5DF8CD
:1009B00014FB00009D0C00080400002002E008C8A1
:1009C000121F08C1002AFAD170477047002001E0C9
:1009D00001C1121F002AFBD1704700002DE9FF4F13
:1009E0008DB09B460F460446002606E025280BD016
:1009F0005A460F999047641C761C20780028F5D140
:100A000011B03046BDE8F08F0025A8460122984974
:100A100000E0054314F8013F203B02FA03F00842CE
:100A2000F7D120782E2817D114F8010F45F00405CE
:100A30002A280ED06FF02F022078A0F1300109296A
:100A40000AD808EB880102EB410100EB0108641CA5
:100A5000F2E757F8048B641C20786C280DD004DC76
:100A60004C2812D06A2811D104E074280DD07A28BD
:100A70000CD10AE045F4001507E0617845F48015D3
:100A8000814202D1641C05F58015641C2078692818
:100A900044D008DC0028B3D0582867D063280FD092
:100AA000642808D13AE0702865D0732812D07528E0
:100AB0005AD078285AD05A460F999047761CD5E0DC
:100AC00017F8040B8DF8000000208DF80100E946AE
:100AD000012003E057F8049B4FF0FF3069074FF007
:100AE000000501D40AE06D1C45450DDA8542FADBAC
:100AF00019F805100029F6D106E06D1C8542FCDBD3
:100B000019F805100029F8D12E4404E019F8010B5A
:100B10005A460F9990476D1EF8D2A7E00A2000218F
:100B2000CDE90801C5F3025002280CD001CFC1174E
:100B3000021E71F100020CDA0023D0EB030063EB1C
:100B400001012D2208E0FF1D27F00707F7E8020149
:100B5000EEE72A0504D52B228DF8282001223CE05F
:100B6000EA073AD02022F7E70A2000E0102000210F
:100B7000CDE9080107E01020002145F00405CDE98A
:100B800008014FF00808C5F30250022810D001CF29
:100B900000214FF0000A2A0720D52278702A0DD0B4
:100BA000DDE908C38CF0100C5CEA030C0CD015E0F6
:100BB000FF1D27F00707F7E80201EAE740228DF85A
:100BC00028204FF0010A0CE050EA010306D0302340
:100BD0008DF828308DF82920022292462278582A52
:100BE00004D024A20DF120090B9209E026A2F9E716
:100BF000DDE90823FFF7BAFA0B9B9B5C09F8013D7E
:100C000050EA0102F4D1ADEB0900203008906807EA
:100C100001D44FF001080899884503DD0898A8EB36
:100C2000000000E000208046002506E00AA85A46A1
:100C3000405D0F9990476D1C761C5545F6DB04E02E
:100C400030205A460F999047761CB8F10001A8F160
:100C50000108F5DC05E019F8010B5A460F99904799
:100C6000761C0899481E08900029F4DC641CC4E630
:100C70000928010030313233343536373839616272
:100C80006364656600000000303132333435363736
:100C900038394142434445460000000070B50446DF
:100CA0000D462046FFF77CFC204670BD86B0FFF75E
:100CB000BDFBFFF7E2FC00200590049004A905A805
:100CC000FFF70FFD13A0FFF769FEBDF810209DF898
:100CD000141011A0FFF762FE00210846FFF7B0FCD8
:100CE000082013A30022114600901046FFF72FFDA5
:100CF0000020019002900390082001AB00221146D1
:100D000000901046FFF7BDFC01A90CA0FFF746FEBE
:100D100000BFFEE7310000006D69643D3078255862
:100D20002C206469643D307825580D0A00000000CD
:100D300031323334353637380000000025730D0A60
:100D400000000000640D0008000000200800000002
:100D5000BC0900086C0D00080800002068040000B1
:0C0D6000CC0900080000000000000000AA
:0400000508000149A5
:00000001FF
