:020000040800F2
:100000007004002049010008510100085301000854
:1000100055010008570100085901000800000000C0
:100020000000000000000000000000005B0100086C
:100030005D010008000000005F0100086101000888
:100040006301000863010008630100086301000800
:1000500063010008630100086301000863010008F0
:10006000630100086301000863010008350200080D
:1000700063010008630100086502000863010008CD
:1000800063010008630100086301000863010008C0
:1000900063010008630100086301000863010008B0
:1000A00063010008B108000863010008630100084B
:1000B0006301000863010008630100086301000890
:1000C0006301000863010008630100086301000880
:1000D00063010008F90800086301000863010008D3
:1000E0003907000863010008630100086301000884
:1000F0006301000863010008630100086301000850
:10010000630100086301000863010008630100083F
:10011000630100086301000863010008D5080008B6
:10012000630100086301000863010008630100081F
:10013000DFF810D000F04CF800480047690C0008C8
:10014000AFF300807004002006488047064800474F
:10015000FEE7FEE7FEE7FEE7FEE7FEE7FEE7FEE777
:10016000FEE7FEE751080008310100082DE9F05FC5
:100170000546002092469B46884606468146402416
:100180001BE0284641464746224600F042F85346C7
:100190005A46C01A914110D311461846224600F023
:1001A00029F82D1A67EB01084F462246012000214D
:1001B00000F020F817EB00094E41201EA4F10104C5
:1001C000DFDC484631462A464346BDE8F09F000042
:1001D000064C074D06E0E06840F0010394E8070094
:1001E00098471034AC42F6D3FFF7A6FF380D00084D
:1001F000580D0008202A04DB203A00FA02F1002002
:1002000070479140C2F1200320FA03F31943904054
:100210007047202A04DB203A21FA02F000217047BF
:1002200021FA02F3D040C2F120029140084319465E
:10023000704700000948006800F0020068B10748F4
:10024000406840F00100054948600846806820F099
:1002500001008860012002490870704700000240D8
:100260000300002010B50748006800F4005040B1BA
:100270000448406840F480500249486002A000F001
:100280006BFB10BD000002403100000000B50346CA
:1002900003E04FF47A7000F006F8181EA3F1010194
:1002A0008BB2F6D100BD00EBC001C9004FF0E022D7
:1002B0005161002191610521116100BF4FF0E021E2
:1002C000096901F480310029F8D04FF0E021096973
:1002D00021F001014FF0E02211617047624800688F
:1002E0006249084360490860081D00686049084386
:1002F0005D49091D08605F4800685C4908435D4925
:1003000008605D4800685D4908435B4908605648DD
:1003100000685B4908435449086008460068594929
:10032000084051490860081D0068574908434E4974
:10033000091D086008460068544908404A49091DDB
:1003400008604C4800684E4908434A49086008461E
:1003500000684C49084047490860474800684C49D4
:10036000084345490860084600684A490840424930
:100370000860081F006840F03300091F0860081D6E
:100380000068454908433C4908604448006840F01B
:10039000405042490860081D006840F03330091D94
:1003A00008603548001F006840F088003249091F86
:1003B00008600846006820F044000860081D0068D6
:1003C000374908432C490860084600683549084009
:1003D000294908603148006840F000402F49086012
:1003E0000846006820F080400860081D006840F062
:1003F0008830091D08600846006800F0BB300860BE
:100400001D48001F006840F44C101B49091F08607C
:100410000846006840F4080008600846006820F4B8
:10042000880008601D48006840F033001B490860E0
:100430000846006840F0880008600846006820F020
:10044000440008600B48406840F440700949486027
:100450000846406840F4006048600846406820F460
:100460008060486070470000001C01403333330057
:1004700000003333002001400414014000303300F9
:1004800088888800BBBBBBFF00008888FFFFBBBB20
:1004900000808800FFBFBBFF33030033001801401A
:1004A00088080088BBFBFFBB00B52448806940F486
:1004B000F070224988610846406940F480704861C4
:1004C000FFF70CFF4FF02040006940F001004FF0B3
:1004D000204108610846006920F00C0008610846C8
:1004E000006920F0200008610846006940F0100013
:1004F00008610846006920F00200086108460069AA
:1005000040F4805008610846006920F0400008610E
:100510000846406920F0F00048610846406920F034
:100520000F0048610846406920F47F404861084652
:10053000406940F48E40486100BD00000010024058
:100540000348008820F0010001490880704700003E
:10055000002C014010B54848806940F4804046496D
:1005600088610846806940F004008861434800685B
:1005700040F03000414908600846006840F08000C3
:1005800008600846006820F04000086008460068DF
:1005900020F4407008600846006840F480600860FD
:1005A0000846006820F4006008603548008840F084
:1005B0000800334908800846008840F0040008809D
:1005C0002F480C38008820F001002D490C39088094
:1005D0002B48001F008840F2712108432849091F59
:1005E0000880081D008820F48050091D0880081D1F
:1005F000008820F44050091D0880081F008840F042
:100600001000091F08800846008840F0200008807C
:10061000032002461B4B19684FF6FF0319401A4B83
:100620000B4343EA0221174B196000BF2520032129
:10063000002808DA0A07140E124A0C3200F00F03E1
:100640001B1FD45403E00A07130E104A135400BFB3
:10065000252000F01F02012191404209920002F181
:10066000E022C2F8001100BF0548008840F40050A5
:100670000349088010BD000000100240040801403A
:100680000C3801400CED00E00000FA0500E400E049
:1006900000BF0549098801F080010029F9D002490D
:1006A000091D0880704700000038014010B503465E
:1006B0000C46002204E0985CFFF7EAFF501CC2B22F
:1006C000A242F8DB10BD000000BF0549098801F017
:1006D00080010029F9D00249091D088070470000F7
:1006E00000380140024909680143014A116070471E
:1006F0000C080140024909688143014A11607047B2
:100700000C08014010B5044608480068204030B984
:1007100007A000F021F92046FFF7E4FF05E005A05F
:1007200000F01AF92046FFF7E5FF10BD0C08014064
:10073000330000003400000010B50948006840F4A0
:100740008060074908600520FFF7A0FD05480068A4
:1007500000F4806010B90220FFF7D4FF10BD000044
:10076000140401400C1C014010B500F001F810BD4C
:100770000CB50020019000903348006840F48030B0
:100780003149086000BF3048006800F40030009034
:100790000198401C0190009818B90198B0F5A06F1D
:1007A000F1D12948006800F4003010B10120009018
:1007B00001E0002000900098012843D12348006800
:1007C00040F01000214908600846006820F007004A
:1007D00008600846006840F0020008601A48406857
:1007E000194948600846406848600846406840F437
:1007F000806048600846406820F47C1048600846E5
:10080000406840F4E81048600846006840F0807096
:10081000086000BF0C48006800F000700028F9D0A4
:100820000948406820F003000749486008464068CE
:1008300040F00200486000BF0348406800F00C0030
:100840000828F9D10CBD0000001002400020024031
:1008500010B51348006840F00100114908600846CF
:100860004068104908400E494860084600680E4933
:1008700008400B4908600846006820F480200860A2
:100880000846406820F4FE0048604FF41F0088606E
:10089000FFF76AFF4FF000600449086010BD0000D8
:1008A000001002400000FFF8FFFFF6FE08ED00E038
:1008B00010B506A000F050F80548008820F00100AF
:1008C00003490880FFF73CFE10BD0000610D0A00DF
:1008D000102C014010B50648008820F001000449A2
:1008E00008800120FFF70EFF02A000F035F810BDD0
:1008F000101400403100000000B51448008800F0DA
:10090000100068B1114800881048001D0088104888
:1009100001781048FFF7CAFE00200D49087013E067
:100920000A48008800F0200070B10848001D0088C7
:100930000648001D00880749054A12788854044873
:100940000078401C0249087000BD000000380140DA
:1009500002000020080000200FB4054B10B503A9C9
:10096000044A029800F018F810BC5DF814FB00006F
:10097000590C00080400002002E008C8121F08C13A
:10098000002AFAD170477047002001E001C1121F10
:10099000002AFBD1704700002DE9FF4F8DB09B4628
:1009A0000F460446002606E025280BD05A460F992C
:1009B0009047641C761C20780028F5D111B0304691
:1009C000BDE8F08F0025A8460122984900E00543C4
:1009D00014F8013F203B02FA03F00842F7D12078D7
:1009E0002E2817D114F8010F45F004052A280ED03F
:1009F0006FF02F022078A0F1300109290AD808EB06
:100A0000880102EB410100EB0108641CF2E757F892
:100A1000048B641C20786C280DD004DC4C2812D088
:100A20006A2811D104E074280DD07A280CD10AE08C
:100A300045F4001507E0617845F48015814202D144
:100A4000641C05F58015641C2078692844D008DCF6
:100A50000028B3D0582867D063280FD0642808D165
:100A60003AE0702865D0732812D075285AD07828BB
:100A70005AD05A460F999047761CD5E017F8040BC8
:100A80008DF8000000208DF80100E946012003E008
:100A900057F8049B4FF0FF3069074FF0000501D471
:100AA0000AE06D1C45450DDA8542FADB19F80510A0
:100AB0000029F6D106E06D1C8542FCDB19F8051013
:100AC0000029F8D12E4404E019F8010B5A460F9979
:100AD00090476D1EF8D2A7E00A200021CDE9080159
:100AE000C5F3025002280CD001CFC117021E71F1CC
:100AF00000020CDA0023D0EB030063EB01012D228E
:100B000008E0FF1D27F00707F7E80201EEE72A05D6
:100B100004D52B228DF8282001223CE0EA073AD0A8
:100B20002022F7E70A2000E010200021CDE908018B
:100B300007E01020002145F00405CDE908014FF041
:100B40000808C5F30250022810D001CF00214FF051
:100B5000000A2A0720D52278702A0DD0DDE908C3C3
:100B60008CF0100C5CEA030C0CD015E0FF1D27F094
:100B70000707F7E80201EAE740228DF828204FF046
:100B8000010A0CE050EA010306D030238DF828302A
:100B90008DF82920022292462278582A04D024A2D5
:100BA0000DF120090B9209E026A2F9E7DDE90823FF
:100BB000FFF7DCFA0B9B9B5C09F8013D50EA010250
:100BC000F4D1ADEB090020300890680701D44FF054
:100BD00001080899884503DD0898A8EB000000E0AB
:100BE00000208046002506E00AA85A46405D0F997D
:100BF00090476D1C761C5545F6DB04E030205A46C4
:100C00000F999047761CB8F10001A8F10108F5DCB6
:100C100005E019F8010B5A460F999047761C089980
:100C2000481E08900029F4DC641CC4E60928010071
:100C30003031323334353637383961626364656652
:100C40000000000030313233343536373839414214
:100C5000434445460000000070B504460D4620465A
:100C6000FFF732FD204670BD08B5FFF773FCFFF7B4
:100C70001BFCC820194908706420194908700B2012
:100C800000901E204FF0D04148700846417815A0D2
:100C9000FFF762FE11480278014616A0FFF75CFEDE
:100CA0000F480278014616A0FFF756FE1748028843
:100CB000014617A0FFF750FE9DF80020694617A0D7
:100CC000FFF74AFE16204FF0D04108740846027C18
:100CD000154916A0FFF740FE00BFFEE700000068C0
:100CE00004000068307836383030303030313D25FF
:100CF000640D0A0076313D25702C2025640D0A0014
:100D000076323D25702C2025640D0A00000000205D
:100D100069313D25702C2025640D0A0076333D2570
:100D2000702C2025640D0A001000006849343D2510
:100D3000702C2025640D0A00580D000800000020CA
:100D40000800000078090008600D00080800002075
:100D5000680400008809000814000000000000007A
:0400000508000149A5
:00000001FF
