:020000040800F2
:100000007004002049010008510100085301000854
:1000100055010008570100085901000800000000C0
:100020000000000000000000000000005B0100086C
:100030005D010008000000005F0100086101000888
:100040006301000863010008630100086301000800
:1000500063010008630100086301000863010008F0
:1000600063010008630100086301000863010008E0
:1000700063010008630100086301000863010008D0
:1000800063010008630100086301000863010008C0
:1000900063010008630100086301000863010008B0
:1000A00063010008630100086301000863010008A0
:1000B0006301000863010008630100086301000890
:1000C0006301000863010008630100086301000880
:1000D00063010008210900086301000863010008AA
:1000E0008D06000863010008630100086301000831
:1000F0006301000863010008630100086301000850
:10010000630100086301000863010008630100083F
:10011000630100086301000863010008630100082F
:10012000630100086301000863010008630100081F
:10013000DFF810D000F02CF800480047A50A0008AE
:10014000AFF300807004002006488047064800474F
:10015000FEE7FEE7FEE7FEE7FEE7FEE7FEE7FEE777
:10016000FEE7FEE7C108000831010008D2B201E055
:1001700000F8012B491EFBD270470022F6E710B5AC
:1001800013460A4604461946FFF7F0FF204610BD05
:10019000064C074D06E0E06840F0010394E80700D4
:1001A00098471034AC42F6D3FFF7C6FF680B00083F
:1001B000880B000800B5034603E04FF47A7000F0A6
:1001C00006F8181EA3F101018BB2F6D100BD00EBB9
:1001D000C001C9004FF0E022516100219161052169
:1001E000116100BF4FF0E021096901F4803100295D
:1001F000F8D04FF0E021096921F001014FF0E02231
:100200001161704710B54848806940F48040464904
:1002100088610846806940F00400886143480068AE
:1002200040F03000414908600846006840F0800016
:1002300008600846006820F0400008600846006832
:1002400020F4407008600846006840F48060086050
:100250000846006820F4006008603548008840F0D7
:100260000800334908800846008840F004000880F0
:100270002F480C38008820F001002D490C390880E7
:100280002B48001F008840F2712108432849091FAC
:100290000880081D008820F48050091D0880081D72
:1002A000008820F44050091D0880081F008840F095
:1002B0001000091F08800846008840F020000880D0
:1002C000032002461B4B19684FF6FF0319401A4BD7
:1002D0000B4343EA0221174B196000BF252003217D
:1002E000002808DA0A07140E124A0C3200F00F0335
:1002F0001B1FD45403E00A07130E104A135400BF07
:10030000252000F01F02012191404209920002F1D4
:10031000E022C2F8001100BF0548008840F40050F8
:100320000349088010BD000000100240040801408D
:100330000C3801400CED00E00000FA0500E400E09C
:1003400000BF0549098801F080010029F9D0024960
:10035000091D0880704700000038014010B50346B1
:100360000C46002204E0985CFFF7EAFF501CC2B282
:10037000A242F8DB10BD000000BF0549098801F06A
:1003800080010029F9D00249091D0880704700004A
:100390000038014010B51A48006820F48060184900
:1003A00008600846006840F4006008600520FFF718
:1003B00001FF1348006820F400601149086005201F
:1003C000FFF7F8FE0E48006840F480600C490860B2
:1003D0000846006820F4006008600520FFF7EAFE88
:1003E0000748006820F480600549086008460068F6
:1003F00040F4006008600520FFF7DCFE10BD00003F
:100400000C0C01401248806940F0080010498861D6
:100410001048006840F440700E49086008460068C3
:1004200020F4006008600846006840F480600860BE
:100430000846006840F4405008600846006820F410
:10044000004008600846006840F48040086070473B
:1004500000100240040C014010B51048006820F460
:1004600080600E4908600846006840F4006008603B
:100470000520FFF79FFE0948006840F480600749A7
:1004800008600520FFF796FE0448006820F48060AD
:10049000024908600520FFF78DFE10BD0C0C0140DD
:1004A00010B50C48006840F480600A4908600846AE
:1004B000006840F4006008600520FFF77BFE0548F7
:1004C000006820F40060034908600520FFF772FE11
:1004D00010BD00000C0C014010B50C48006840F441
:1004E00080600A4908600846006820F400600860DF
:1004F0000520FFF75FFE0548006840F400600349EF
:1005000008600520FFF756FE10BD00000C0C0140EE
:1005100010B51548006840F40060134908600846AB
:10052000006820F4806008600520FFF743FE0E4855
:10053000006840F480600C4908600520FFF73AFE2F
:100540000948001F006800F400640748006820F4B0
:100550008060054908600520FFF72CFE0CB10120E2
:1005600010BD0020FCE700000C0C014070B5002419
:10057000002526E01548006820F4806013490860D3
:100580000520FFF717FE1148006840F480600F490E
:1005900008600520FFF70EFE6006040E0B48001FE2
:1005A000006800F4006008B144F0010407480068E6
:1005B00020F48060054908600520FFF7FBFD681CFA
:1005C000C5B2082DD6DB204670BD00000C0C0140E2
:1005D00070B50446002533E01B48006820F4006035
:1005E000194908600846006820F48060086005200A
:1005F000FFF7E0FD04F0800030B11348006840F4DC
:1006000000601149086005E00F48006820F40060B0
:100610000D4908600C48006840F480600A49086091
:100620000520FFF7C7FD0848006820F480600649F0
:1006300008600520FFF7BEFD6006040E681CC5B209
:10064000082DC9DB70BD00000C0C0140024909688F
:100650000143014A116070470C08014002490968D2
:100660008143014A116070470C08014000B5034600
:1006700005480068184018B91846FFF7E7FF02E080
:100680001846FFF7EBFF00BD0C08014010B5094804
:10069000006840F48060074908600520FFF78AFD84
:1006A0000548006800F4806010B90220FFF7DEFF03
:1006B00010BD0000140401400C1C014010B5FFF7F0
:1006C000A1FE10BD70B50446FFF7EAFEA020FFF7BB
:1006D0007FFFFFF71DFF2046FFF77AFFFFF718FFA8
:1006E000FFF7DEFEA120FFF773FFFFF711FFFFF713
:1006F0003DFF0546FFF7B0FEFFF7EEFE284670BD52
:100700002DE9F04107460E461546FFF7C9FEA02029
:10071000FFF75EFFFFF7FCFE3846FFF759FFFFF7D4
:10072000F7FEFFF7BDFEA120FFF752FFFFF7F0FE37
:1007300000240CE0FFF71AFF3055681EA04202D1DA
:10074000FFF78AFE01E0FFF725FE601CC4B2AC4251
:10075000F0DBFFF781FEFFF7BFFEBDE8F08170B56B
:1007600005460C46FFF79CFEA020FFF731FFFFF780
:10077000CFFE2846FFF72CFFFFF7CAFE2046FFF703
:1007800027FFFFF7C5FEFFF7A7FE0520FFF712FDC5
:1007900070BD2DE9F04107460D461646FFF780FE75
:1007A000A020FFF715FFFFF7B3FE3846FFF710FF55
:1007B000FFF7AEFE002406E0285DFFF709FFFFF714
:1007C000A7FE601CC4B2B442F6DBFFF785FE05202D
:1007D000FFF7F0FCBDE8F08110B500F001F810BDA6
:1007E0000CB50020019000903348006840F4803040
:1007F0003149086000BF3048006800F400300090C4
:100800000198401C0190009818B90198B0F5A06FAC
:10081000F1D12948006800F4003010B101200090A7
:1008200001E0002000900098012843D1234800688F
:1008300040F01000214908600846006820F00700D9
:1008400008600846006840F0020008601A484068E6
:10085000194948600846406848600846406840F4C6
:10086000806048600846406820F47C104860084674
:10087000406840F4E81048600846006840F0807026
:10088000086000BF0C48006800F000700028F9D034
:100890000948406820F0030007494860084640685E
:1008A00040F00200486000BF0348406800F00C00C0
:1008B0000828F9D10CBD00000010024000200240C1
:1008C00010B51348006840F001001149086008465F
:1008D0004068104908400E494860084600680E49C3
:1008E00008400B4908600846006820F48020086032
:1008F0000846406820F4FE0048604FF41F008860FE
:10090000FFF76AFF4FF000600449086010BD000067
:10091000001002400000FFF8FFFFF6FE08ED00E0C7
:1009200000B51448008800F0100068B11148008834
:100930001048001D0088104801781048FFF70EFD90
:1009400000200D49087013E00A48008800F02000DC
:1009500070B10848001D00880648001D008807493E
:10096000054A1278885404480078401C02490870EF
:1009700000BD0000003801400000002008000020F9
:100980000FB4054B10B503A9044A029800F017F8FC
:1009900010BC5DF814FB0000950A0008040000205C
:1009A00002E008C8121F08C1002AFAD17047704738
:1009B000002001E001C1121F002AFBD170472DE980
:1009C000F84F9946924688460546002706E02528B6
:1009D0000AD051464A4690476D1C7F1C2878002853
:1009E000F5D13846BDE8F88F002315F8011F1846E9
:1009F0002E2915D115F8011F04232A290DD06FF0D7
:100A00002F022978A1F13004092C09D800EB8000CD
:100A100002EB400008446D1CF3E758F8040B6D1C12
:100A20002A78002ADDD0632A07D0732A0FD0104617
:100A300051464A4690477F1C2AE018F8042B8DF84F
:100A4000002000218DF801106E46012103E058F8C6
:100A5000046B4FF0FF315A074FF0000401D409E056
:100A6000641C84420BDA8C42FADB325D002AF7D137
:100A700005E0641C8C42FCDB305D0028F9D1274482
:100A800004E016F8010B51464A469047641EF8D21E
:100A90006D1CA3E770B504460D462046FFF76CFCBD
:100AA000204670BD9AB0FFF7ADFBFFF707FE61214E
:100AB0000120FFF754FE0120FFF704FE044618A0B2
:100AC000FFF75EFF214619A0FFF75AFF19A0FFF7B5
:100AD00057FF06221AA10020FFF75BFE642101A840
:100AE000FFF74BFB062201A90020FFF709FE01A931
:100AF00015A0FFF745FF642101A8FFF73EFB152273
:100B000013A10020FFF745FE152201A90020FFF7E1
:100B1000F7FD01A90CA0FFF733FF00BFFEE70000BF
:100B20006465427567310D0A0000000025630D0AF7
:100B3000000000006465427567320D0A0000000085
:100B4000313233343536000025730D0A00000000C1
:100B50003031323334353637383961626364656633
:100B60006768696A6B000000880B000800000020BD
:100B700008000000A0090008900B000808000020F1
:100B800068040000B0090008000000000000000038
:0400000508000149A5
:00000001FF
